{
    "_format": "hh-sol-artifact-1",
    "contractName": "BuyMeACoffee",
    "sourceName": "contracts/BuyMeACoffee.sol",
    "abi": [
        {
            "inputs": [],
            "stateMutability": "nonpayable",
            "type": "constructor"
        },
        {
            "anonymous": false,
            "inputs": [
                {
                    "indexed": true,
                    "internalType": "address",
                    "name": "from",
                    "type": "address"
                },
                {
                    "indexed": false,
                    "internalType": "uint256",
                    "name": "timestamp",
                    "type": "uint256"
                },
                {
                    "indexed": false,
                    "internalType": "string",
                    "name": "name",
                    "type": "string"
                },
                {
                    "indexed": false,
                    "internalType": "string",
                    "name": "message",
                    "type": "string"
                }
            ],
            "name": "NewMemo",
            "type": "event"
        },
        {
            "inputs": [
                {
                    "internalType": "string",
                    "name": "_name",
                    "type": "string"
                },
                {
                    "internalType": "string",
                    "name": "_message",
                    "type": "string"
                }
            ],
            "name": "buyCoffee",
            "outputs": [],
            "stateMutability": "payable",
            "type": "function"
        },
        {
            "inputs": [],
            "name": "getMemos",
            "outputs": [
                {
                    "components": [
                        {
                            "internalType": "address",
                            "name": "from",
                            "type": "address"
                        },
                        {
                            "internalType": "uint256",
                            "name": "timestamp",
                            "type": "uint256"
                        },
                        {
                            "internalType": "string",
                            "name": "name",
                            "type": "string"
                        },
                        {
                            "internalType": "string",
                            "name": "message",
                            "type": "string"
                        }
                    ],
                    "internalType": "struct BuyMeACoffee.Memo[]",
                    "name": "",
                    "type": "tuple[]"
                }
            ],
            "stateMutability": "view",
            "type": "function"
        },
        {
            "inputs": [],
            "name": "withdrawTips",
            "outputs": [],
            "stateMutability": "nonpayable",
            "type": "function"
        },
        {
            "inputs": [
                {
                    "internalType": "address payable",
                    "name": "_newOwner",
                    "type": "address"
                }
            ],
            "name": "withdrawTipsTransfer",
            "outputs": [],
            "stateMutability": "nonpayable",
            "type": "function"
        }
    ],
    "bytecode": "0x608060405234801561001057600080fd5b50336000806101000a81548173ffffffffffffffffffffffffffffffffffffffff021916908373ffffffffffffffffffffffffffffffffffffffff160217905550610c7c806100606000396000f3fe60806040526004361061003f5760003560e01c8063204206e1146100445780633aaa74b214610060578063865c517214610077578063c4607afb146100a2575b600080fd5b61005e600480360381019061005991906106ae565b6100cb565b005b34801561006c57600080fd5b50610075610253565b005b34801561008357600080fd5b5061008c6102b3565b60405161009991906108f2565b60405180910390f35b3480156100ae57600080fd5b506100c960048036038101906100c49190610685565b610496565b005b6000341161010e576040517f08c379a000000000000000000000000000000000000000000000000000000000815260040161010590610914565b60405180910390fd5b600160405180608001604052803373ffffffffffffffffffffffffffffffffffffffff16815260200142815260200184815260200183815250908060018154018082558091505060019003906000526020600020906004020160009091909190915060008201518160000160006101000a81548173ffffffffffffffffffffffffffffffffffffffff021916908373ffffffffffffffffffffffffffffffffffffffff1602179055506020820151816001015560408201518160020190805190602001906101dd929190610565565b5060608201518160030190805190602001906101fa929190610565565b5050503373ffffffffffffffffffffffffffffffffffffffff167fc56140e05f516509ae28110e0f72e17558a7561630dad2647c3ae87d986e365c42848460405161024793929190610954565b60405180910390a25050565b60008054906101000a900473ffffffffffffffffffffffffffffffffffffffff1673ffffffffffffffffffffffffffffffffffffffff166108fc479081150290604051600060405180830381858888f193505050506102b157600080fd5b565b60606001805480602002602001604051908101604052809291908181526020016000905b8282101561048d57838290600052602060002090600402016040518060800160405290816000820160009054906101000a900473ffffffffffffffffffffffffffffffffffffffff1673ffffffffffffffffffffffffffffffffffffffff1673ffffffffffffffffffffffffffffffffffffffff1681526020016001820154815260200160028201805461036a90610ae5565b80601f016020809104026020016040519081016040528092919081815260200182805461039690610ae5565b80156103e35780601f106103b8576101008083540402835291602001916103e3565b820191906000526020600020905b8154815290600101906020018083116103c657829003601f168201915b505050505081526020016003820180546103fc90610ae5565b80601f016020809104026020016040519081016040528092919081815260200182805461042890610ae5565b80156104755780601f1061044a57610100808354040283529160200191610475565b820191906000526020600020905b81548152906001019060200180831161045857829003601f168201915b505050505081525050815260200190600101906102d7565b50505050905090565b60008054906101000a900473ffffffffffffffffffffffffffffffffffffffff1673ffffffffffffffffffffffffffffffffffffffff163373ffffffffffffffffffffffffffffffffffffffff1614610524576040517f08c379a000000000000000000000000000000000000000000000000000000000815260040161051b90610934565b60405180910390fd5b8073ffffffffffffffffffffffffffffffffffffffff166108fc479081150290604051600060405180830381858888f1935050505061056257600080fd5b50565b82805461057190610ae5565b90600052602060002090601f01602090048101928261059357600085556105da565b82601f106105ac57805160ff19168380011785556105da565b828001600101855582156105da579182015b828111156105d95782518255916020019190600101906105be565b5b5090506105e791906105eb565b5090565b5b808211156106045760008160009055506001016105ec565b5090565b600061061b610616846109be565b610999565b90508281526020810184848401111561063357600080fd5b61063e848285610aa3565b509392505050565b60008135905061065581610c2f565b92915050565b600082601f83011261066c57600080fd5b813561067c848260208601610608565b91505092915050565b60006020828403121561069757600080fd5b60006106a584828501610646565b91505092915050565b600080604083850312156106c157600080fd5b600083013567ffffffffffffffff8111156106db57600080fd5b6106e78582860161065b565b925050602083013567ffffffffffffffff81111561070457600080fd5b6107108582860161065b565b9150509250929050565b6000610726838361086a565b905092915050565b61073781610a55565b82525050565b6000610748826109ff565b6107528185610a22565b935083602082028501610764856109ef565b8060005b858110156107a05784840389528151610781858261071a565b945061078c83610a15565b925060208a01995050600181019050610768565b50829750879550505050505092915050565b60006107bd82610a0a565b6107c78185610a33565b93506107d7818560208601610ab2565b6107e081610ba6565b840191505092915050565b60006107f682610a0a565b6108008185610a44565b9350610810818560208601610ab2565b61081981610ba6565b840191505092915050565b6000610831601a83610a44565b915061083c82610bb7565b602082019050919050565b6000610854602583610a44565b915061085f82610be0565b604082019050919050565b6000608083016000830151610882600086018261072e565b50602083015161089560208601826108d4565b50604083015184820360408601526108ad82826107b2565b915050606083015184820360608601526108c782826107b2565b9150508091505092915050565b6108dd81610a99565b82525050565b6108ec81610a99565b82525050565b6000602082019050818103600083015261090c818461073d565b905092915050565b6000602082019050818103600083015261092d81610824565b9050919050565b6000602082019050818103600083015261094d81610847565b9050919050565b600060608201905061096960008301866108e3565b818103602083015261097b81856107eb565b9050818103604083015261098f81846107eb565b9050949350505050565b60006109a36109b4565b90506109af8282610b17565b919050565b6000604051905090565b600067ffffffffffffffff8211156109d9576109d8610b77565b5b6109e282610ba6565b9050602081019050919050565b6000819050602082019050919050565b600081519050919050565b600081519050919050565b6000602082019050919050565b600082825260208201905092915050565b600082825260208201905092915050565b600082825260208201905092915050565b6000610a6082610a79565b9050919050565b6000610a7282610a79565b9050919050565b600073ffffffffffffffffffffffffffffffffffffffff82169050919050565b6000819050919050565b82818337600083830152505050565b60005b83811015610ad0578082015181840152602081019050610ab5565b83811115610adf576000848401525b50505050565b60006002820490506001821680610afd57607f821691505b60208210811415610b1157610b10610b48565b5b50919050565b610b2082610ba6565b810181811067ffffffffffffffff82111715610b3f57610b3e610b77565b5b80604052505050565b7f4e487b7100000000000000000000000000000000000000000000000000000000600052602260045260246000fd5b7f4e487b7100000000000000000000000000000000000000000000000000000000600052604160045260246000fd5b6000601f19601f8301169050919050565b7f63616e27742062757920636f6666656520666f72206672656521000000000000600082015250565b7f4f6e6c7920746865204f776e65722063616e207472616e73666572207468652060008201527f5469707321000000000000000000000000000000000000000000000000000000602082015250565b610c3881610a67565b8114610c4357600080fd5b5056fea264697066735822122069d558804a06132ac59d2755ffb5dcb1ae85e743b425c9f1dc00773de24c943964736f6c63430008040033",
    "linkReferences": {},
    "deployedLinkReferences": {}
}